:100000000C942A000C943C000C943C000C943C0092
:100010000C943C000C943C000C943C000C943C0070
:100020000C943C000C943C000C943C000C943C0060
:100030000C943C000C943C000C943C000C943C0050
:100040000C943C000C943C000C943C000C943C0040
:100050000C943C0011241FBECFE5D8E0DEBFCDBF1D
:1000600020E0A0E6B0E001C01D92AA36B207E1F799
:100070000E943E000C94C4000C9400008FE080931A
:10008000660017BA11BA8FEF8ABB88E784BB80E895
:1000900084BF84BFC0E0D0E001C0ED0126B327706B
:1000A00030E086B38695869586958770C82ED12CCC
:1000B00060B3677070E010B31695169516951F70B3
:1000C00046B3441F4427441F50E086B386FBAA274B
:1000D000A0F9B0E083B38770E82EF12CE3B3EE1FF4
:1000E000EE27EE1FAE2EB12CC901805A9F4FFC01A6
:1000F0000081C601805A9F4FFC019081F0E19F9FD3
:10010000C0011124802B8BBBC701805A9F4FFC017B
:100110008081880F880F880F85BB209791F4A130CC
:10012000B10579F4452B69F0605A7F4FFB011083CC
:10013000FFE34DE083E0F15040408040E1F700C034
:100140000000219709F0A9CF109709F0A6CF26301B
:10015000310541F4A114B10429F4C0E6D0E08E8148
:1001600081508E832630310541F4AA94AB2829F4BE
:10017000E0E6F0E086818F5F8683E9E8F3EE319771
:0C018000F1F700C0000089CFF894FFCF19
:00000001FF
