:100000000C942A000C943C000C943C000C943C0092
:100010000C943C000C943C000C943C000C943C0070
:100020000C943C000C943C000C943C000C943C0060
:100030000C943C000C943C000C943C000C943C0050
:100040000C943C000C943C000C943C000C943C0040
:100050000C943C0011241FBECFE5D8E0DEBFCDBF1D
:1000600020E0A0E6B0E001C01D92AA36B207E1F799
:100070000E943E000C94DE000C9400008FE0809300
:10008000660017BA11BA8FEF8ABB88E784BB80E895
:1000900084BF84BFC0E0D0E0D12C01C0EA0126B308
:1000A000277030E086B3869586958695877090E0B8
:1000B00060B3677070E010B31695169516951F70B3
:1000C000C12EE6B3EE1FEE27EE1FF0E0A6B3A6FBAF
:1000D000442740F950E0A3B3A770EA2EF12CA3B354
:1000E000AA1FAA27AA1F8A2E912C8901005A1F4FE6
:1000F000D8010C91805A9F4FDC019C91B0E19B9FED
:10010000C0011124902F9F70892B8BBBC701805A8F
:100110009F4FDC018C91880F880F880F85BB20973B
:10012000A9F44130510591F4EF2B81F0611571056F
:1001300021F0FB01E05AFF4FC082BFE30DE013E066
:10014000B15000401040E1F700C0000041155105DA
:10015000C1F489E698E10197F1F700C0000041156C
:10016000510579F42630310561F48114910449F484
:10017000D11007C0E0E6F0E086818F5F8683DD2442
:10018000D394CD2B09F08ACF4130510509F086CFA9
:100190002630310541F48A94892829F4E0E6F0E01C
:1001A000868181508683AFE0B6E602E0A150B04080
:1001B0000040E1F700C00000D12C70CFF894FFCFD1
:00000001FF
