S014000050434A756D704272616E63682E7372656393
S11300000C942A000C9434000C9434000C943400A6
S11300100C9434000C9434000C9434000C9434008C
S11300200C9434000C9434000C9434000C9434007C
S11300300C9434000C9434000C9434000C9434006C
S11300400C9434000C9434000C9434000C9434005C
S11300500C94340011241FBECFE5D8E0DEBFCDBF21
S11300600E9436000C9477000C94000017BA8FEFAE
S11300708ABB11BA8EEF84BB80E884BF84BFF0E0F2
S1130080E0E001C0E92F90B3991F9927991F76B337
S113009080B38F7020B326FB222720F930B335FBC1
S11300A0332730F940B344FB552750F943B341702B
S11300B0682F66956695669509F0806F913011F703
S11300C0E111E0CF61E06F0F332311F05413680F97
S11300D0211101C0762F7BBB2FE33DE083E021504B
S11300E030408040E1F700C00000F72FCBCFF894F8
S10500F0FFCF3C
S9030000FC
