S014000050434A756D704272616E63682E7372656393
S11300000C942A000C9434000C9434000C943400A6
S11300100C9434000C9434000C9434000C9434008C
S11300200C9434000C9434000C9434000C9434007C
S11300300C9434000C9434000C9434000C9434006C
S11300400C9434000C9434000C9434000C9434005C
S11300500C94340011241FBECFE5D8E0DEBFCDBF21
S11300600E9436000C9471000C94000017BA8FEFB4
S11300708ABB11BA14BA80E884BF84BFE0E070E0A0
S113008001C0782F80B3881F8827881F66B390B378
S1130090592F5F7090B396FB992790F920B325FBF5
S11300A0222720F930B334FB442740F933B33170AD
S11300B0813039F77111E5CF71E07E0F222311F001
S11300C04313750F911101C0672F6BBB2FE332E40B
S11300D09FE0215030409040E1F700C00000E62F3F
S10900E0D0CFF894FFCF1D
S9030000FC
