:100000000C942A000C943F000C943F000C943F0089
:100010000C943F000C943F000C943F000C943F0064
:100020000C943F000C943F000C943F000C943F0054
:100030000C943F000C943F000C943F000C943F0044
:100040000C943F000C943F000C943F000C943F0034
:100050000C943F0011241FBECFE5D8E0DEBFCDBF1A
:1000600010E0A0E6B0E0E0EBF0E002C005900D92F9
:10007000A038B107D9F70E9441000C9456000C94A7
:1000800000008FEF87BB1ABA14BA11BA80E884BF98
:1000900084BFE6B3EF70F0E0EE0FFF1FE05AFF4FB2
:1000A00080818BBB818185BB12BAF3CFF894FFCFDF
:1000B000196C0603066006018000196019306E4055
:1000C00059406B402E6061402B60464000C000C02C
:00000001FF
