:100000000C942A000C943F000C943F000C943F0089
:100010000C943F000C943F000C943F000C943F0064
:100020000C943F000C943F000C943F000C943F0054
:100030000C943F000C943F000C943F000C943F0044
:100040000C943F000C943F000C943F000C943F0034
:100050000C943F0011241FBECFE5D8E0DEBFCDBF1A
:1000600010E0A0E6B0E0E0E1F1E002C005900D9202
:10007000A03AB107D9F70E9441000C9486000C9475
:10008000000017BA8FEF8ABB84BB81BB80E884BFB6
:1000900084BFE6B3EF70F0E0EE0FFF1FEE0FFF1F1F
:1000A000E05AFF4F80818BBB80819181A281B38117
:1000B000892F9A2FAB2FBB27A7FDBA9585BB8081CF
:1000C0009181A281B381CD01BB2797FDB095AB2F64
:1000D000880F991FAA1FBB1F880F991FAA1FBB1F3C
:1000E000880F991FAA1FBB1F880F991FAA1FBB1F2C
:1000F000880F991FAA1FBB1F880F991FAA1FBB1F1C
:10010000880F991FAA1FBB1F82BBC3CFF894FFCFD4
:10011000196C0000060300000660000006010000E4
:100120008000000019600000193000006E400000DF
:10013000594000006B4000002E600000614000004C
:100140002B6000004640000000C0000000C001001D
:00000001FF
