:100000000C942A000C943F000C943F000C943F0089
:100010000C943F000C943F000C943F000C943F0064
:100020000C943F000C943F000C943F000C943F0054
:100030000C943F000C943F000C943F000C943F0044
:100040000C943F000C943F000C943F000C943F0034
:100050000C943F0011241FBECFE5D8E0DEBFCDBF1A
:1000600010E0A0E6B0E0ECEBF0E002C005900D92ED
:10007000AC38B107D9F70E9441000C945C000C9495
:10008000000017BA8FEF8ABB81BB80E884BF84BFB2
:10009000E6B3F0E0EE0FFF1FE05AFF4F80818BBB0D
:1000A000818182BB2FE986E891E021508040904019
:0C00B000E1F700C00000ECCFF894FFCF97
:1000BC0023503E20318234D235B1236331F34133A6
:1000CC00604141E43403206630665041317131C5E2
:0C00DC0025A23006529320066041381126
:00000001FF
