S0190000496E737472756374696F6E4D656D6F72792E73726563F0
S11300000C942A000C943F000C943F000C943F0085
S11300100C943F000C943F000C943F000C943F0060
S11300200C943F000C943F000C943F000C943F0050
S11300300C943F000C943F000C943F000C943F0040
S11300400C943F000C943F000C943F000C943F0030
S11300500C943F0011241FBECFE5D8E0DEBFCDBF16
S113006010E0A0E6B0E0EAEAF0E002C005900D92EC
S1130070A039B107D9F70E9441000C9453000C94A5
S1130080000017BA8FEF8ABB84BB80E884BF84BFAB
S1130090E6B3F0E0EE0FFF1FE05AFF4F80818BBB09
S10D00A0818185BBF5CFF894FFCFF2
S11300AA23503E20318234D235B1236335B12363E0
S11300BA31F34133804141E43403206630667041B0
S11300CA317131C525A23006529320068041381178
S9030000FC
