:100000000C942A000C943C000C943C000C943C0092
:100010000C943C000C943C000C943C000C943C0070
:100020000C943C000C943C000C943C000C943C0060
:100030000C943C000C943C000C943C000C943C0050
:100040000C943C000C943C000C943C000C943C0040
:100050000C943C0011241FBECFE5D8E0DEBFCDBF1D
:1000600020E0A0E6B0E001C01D92A037B207E1F7A2
:100070000E943E000C9495000C94000017BA80EC8E
:1000800081BB8FEF8ABB14BA80E884BF84BF84BF72
:10009000B0E001C0B32F26B32F7086B3782F7295CE
:1000A0007F7080B340B34695417050B352FB5527E3
:1000B00050F990B393FB992790F963B362956F70F1
:1000C00083B38F70A0B330B335FB332730F9E22F01
:1000D000F0E0EF01C05ADF4FC881A4FD2C2F992317
:1000E00039F090E002C0959587956A95E2F704C0D3
:1000F00001C0880F6A95EAF7511101C0822F8295DD
:10010000807F8BBB442331F2B111C4CF313011F663
:10011000E05AFF4F70832FE38DE093E02150804041
:0E0120009040E1F700C00000B5CFF894FFCF8B
:00000001FF
