:100000000C942A000C9434000C9434000C943400AA
:100010000C9434000C9434000C9434000C94340090
:100020000C9434000C9434000C9434000C94340080
:100030000C9434000C9434000C9434000C94340070
:100040000C9434000C9434000C9434000C94340060
:100050000C94340011241FBECFE5D8E0DEBFCDBF25
:100060000E9436000C9462000C94000017BA14BA77
:100070008FEF8ABB80E884BF84BF83B38F7396B34E
:10008000392F3F7096B392959F70893119F4232FC1
:10009000290F01C0232F863011F4232F291B8B3207
:1000A00011F4232F29238E3211F4232F292B81328F
:1000B00021F4932B9095292F2F70211101C02062DC
:0800C0002BBBDBCFF894FFCF4E
:00000001FF
